:1000000068C082C081C080C07FC0C4C17DC07CC0C8
:100010007BC07AC079C078C077C076C075C0E2C0B6
:10002000E3C0E2C0E1C0E0C0DFC0DEC0DDC0DCC0D4
:10003000DBC0DAC0CFC0D8C0CBC0D6C0D5C0B6C038
:10004000B7C0B8C0B9C0BAC0BBC0BCC0BDC0BEC0DC
:10005000C5C0C2C0C9C0C8C0C7C0C2C0C5C072C0C8
:1000600073C074C075C076C077C078C079C07AC0DC
:100070007BC07CC07DC07EC07FC080C081C082C08C
:1000800083C084C085C086C087C088C089C08AC03C
:100090008BC0AAC0A9C0A8C0A7C0A6C0A5C052C096
:1000A00053C054C055C056C057C058C059C05AC09C
:1000B0005BC05CC05DC05EC05FC060C061C062C04C
:1000C00063C064C065C066C067C068C069C06AC0FC
:1000D0006BC011241FBECFE5D1E0DEBFCDBF10E065
:1000E000A0E6B0E0E4EDF4E002C005900D92AC367D
:1000F000B107D9F720E0ACE6B0E001C01D92A3370C
:10010000B207E1F7C2D1E4C17BCFCF93DF931F9257
:10011000CDB7DEB789838981082E000C990B092E93
:10012000000CAA0BBB0B41E250E029E530E0841B38
:10013000950B2817390708F457C0815F9F4F8F939D
:100140009F93089580EA51C088E14FC088E54DC073
:1001500080E34BC080E449C088E447C080E745C0E5
:1001600088E043C080E241C088EE3FC080EB3DC0E4
:1001700088E23BC080EE39C080E637C080EF35C0F2
:1001800088E633C088EB31C080E52FC080E12DC008
:1001900080EC2BC080E929C088E827C080ED25C00D
:1001A00088E923C088ED21C088E31FC084EF1DC00B
:1001B00084EE1BC084EC19C084E817C084E015C02D
:1001C0008CE013C08CE111C08CE30FC08CE70DC034
:1001D00082E00BC08AEA09C086E507C08EE105C04F
:1001E00082E303C08EEC01C080E00F90DF91CF91DD
:1001F0000895CF93DF93CDB7DEB78CE490E02CE485
:1002000030E0F90120812160FC01208382E590E04B
:10021000FC01108283E590E023E530E0F9012081C4
:100220002460FC01208378940000DF91CF91089531
:10023000CF93DF93CDB7DEB780916F0090917000C0
:10024000089788F588E390E028E330E0F901208101
:10025000277FFC01208380916E00882F90E0209101
:100260006F003091700002C0959587952A95E2F74E
:1002700081709927892B39F086E090E09093720085
:100280008093710006C082E090E0909372008093AA
:10029000710080916F0090917000019690937000B2
:1002A00080936F0006C086E090E090937200809388
:1002B00071009FDF0000DF91CF910895CF93DF930E
:1002C00000D0CDB7DEB71A82198289819A8108974A
:1002D000E4F480916E00882F90E0098002C095952B
:1002E00087950A94E2F781709927892B41F08981DB
:1002F0009A8101969A83898389819A8108C089812C
:100300009A8101969A838983E0CF88E090E00F90EC
:100310000F90DF91CF910895CF93DF93CDB7DEB7E4
:1003200080916C0090916D00805A9F4FFC018081FC
:100330008823D9F080916C0090916D00805A9F4F76
:10034000FC018081E2DE80936E00B8DF9093700044
:1003500080936F0080916C0090916D000196909356
:100360006D0080936C0064DF11C088E290E0909390
:1003700072008093710010926D0010926C0088E002
:1003800090E09093700080936F0033DF0000DF9166
:10039000CF9108951F920F9200905F000F92112449
:1003A0002F933F934F935F936F937F938F939F937D
:1003B000AF93BF93EF93FF93CF93DF93CDB7DEB7A8
:1003C000F89483E590E023E530E0F90120812B7F6C
:1003D000FC012083809171009091720001979093AD
:1003E0007200809371008091710090917200892B4E
:1003F000B1F586E390E0FC018081882F90E0887061
:10040000992721E0892B09F020E02223F1F088E3ED
:1004100090E028E330E0F90120812860FC0120838E
:1004200080916F0090917000089738F482E090E01E
:10043000909372008093710006C086E090E09093E4
:10044000720080937100D5DE0BC080916F00909197
:100450007000089710F4ECDE03C05EDF01C0C9DE57
:100460000000DF91CF91FF91EF91BF91AF919F91EC
:100470008F917F916F915F914F913F912F910F904D
:1004800000925F000F901F901895CF93DF93CDB728
:10049000DEB787E390E027E330E0F90120812860B0
:1004A000FC01208388E390E028E330E0F90120811B
:1004B0002860FC012083F89489E590E029E530E08C
:1004C000F90120812260FC012083789425DFFFCF91
:0404D000F894FFCFCE
:0C04D400565656205656562056565600D6
:00000001FF
